S01B00004D65646963616C5F7472616E736D69747465722E737265633E
S11300000C942A000C9447000C9447000C9447006D
S11300100C9447000C9447000C9447000C94A802DD
S11300200C9447000C9447000C9447000C94470030
S11300300C9447000C947A020C9447000C944700EB
S11300400C9447000C9447000C9447000C94470010
S11300500C94470011241FBECFE5D8E0DEBFCDBF0E
S113006011E0A0E6B0E0ECE7F0E102C005900D92EB
S1130070AA3FB107D9F722E0AAEFB1E001C01D926F
S1130080A43DB207E1F70E9441030C943C080C9490
S11300900000BC0180E890E00E94EF04892B09F085
S11300A0FFCF80E00895AF92BF92CF92DF92EF929C
S11300B0FF920F931F93CF93DF93EC018C01C12C1C
S11300C0D12C7601A12CB12C20E032C0F801819111
S11300D08F018E3281F48CEF91E00E94C304EB2DEA
S11300E0F0E0EC58FF4F8083B394ECEFF1E0108222
S11300F0118220E018C08F3581F48CEF91E00E94CA
S1130100C304EA2DF0E0E758FF4F8083A394ECEF9B
S1130110F1E01082118220E006C0E22FF0E0E4500A
S1130120FE4F80832F5FFFEFCF1ADF0AEF0AFF0A2B
S1130130FE0101900020E9F73197CF018C1B9D0B44
S1130140A0E0B0E0C816D906EA06FB0608F4BECF64
S1130150DF91CF911F910F91FF90EF90DF90CF909F
S1130160BF90AF9008958EB58D7F8EBD8EB58E7F76
S11301708EBD8EB584608EBD89B7806189BF8AE7E4
S11301808BBD82E18ABD1DBC1CBC8EB588608EBD52
S113019008958CB59DB50E94B8040E94B30460EA2A
S11301A070E00E941D0488588093D2020E94B30418
S11301B06AE570E00E941D04845C8093D0020E9472
S11301C0B30468E770E00E941D04845C8093D1024C
S11301D081E08093FB0108953F924F925F926F926A
S11301E07F928F929F92AF92BF92CF92DF92EF92C3
S11301F0FF920F931F93CF93DF9300D000D0CDB71E
S1130200DEB78091010290910202A0910302B091A5
S11302100402803E914BAF4FBF4F71F4109207021E
S11302201092010210920202109203021092040230
S113023082E08093D30296C0412C512C32018091EC
S1130240D302843021F41A8219821092D302E8E096
S1130250F2E001900020E9F73197CF0188509240F5
S11302606C01E12CF12CC114D104E104F10409F472
S11302705BC08FEC97E00197F1F700C000009FEF9F
S1130280491A590A690A790AE8E0F2E00190002063
S1130290E9F73197CF0188509240A0E0B0E0C8164A
S11302A0D906EA06FB0609F03FC080910702082E32
S11302B0000C990BFC013296FC83EB8308E012E0FE
S11302C0812C912C5401312C8A818983F8018191EC
S11302D08F018A8342E050E066E870E0CE01019627
S11302E00E94E104892BB1F43394832D90E02B8197
S11302F03C818217930771F4109207021092010255
S113030010920202109203021092040281E0809380
S1130310D30228C03FEF831A930AA30AB30AC8146E
S1130320D904EA04FB0481F68FEC97E00197F1F716
S113033000C000009FEF491A590A690A790A80919E
S1130340010290910202A0910302B0910402805E26
S1130350914BAF4FBF4F481659066A067B0608F407
S11303606ECF5CCF0F900F900F900F90DF91CF91D5
S11303701F910F91FF90EF90DF90CF90BF90AF90BF
S11303809F908F907F906F905F904F903F900895D3
S113039088ECE8E0F2E0DF011D928A95E9F710921B
S11303A0060210920502089584E08093D3020E940D
S11303B0EC008091D3028823D1F30895CF93DF9387
S11303C0EC010E94C8012FEF81EE94E0215080409F
S11303D09040E1F700C000000E94D4018091D30254
S11303E0823051F0BE0188E092E00E94EF0421E0E7
S11303F0892B19F420E001C020E0822FDF91CF91F6
S1130400089586EC90E00E940E048DE991E00E942C
S1130410DE0108950F931F93CF93DF938C01EB01BB
S113042087E491E00E940E0483E591E00E94DE01DE
S1130430882329F08EE591E00E940E040CC082E727
S113044091E00E940E048EE790E00E940E0480E882
S113045091E00E940E04C8010E940E0486E891E017
S11304600E940E04CE010E940E0489E091E00E94D5
S11304700E0482E0809307028CE391E00E94DE0187
S1130480811106C08091D302823021F085E003C03F
S113049081E001C082E0DF91CF911F910F91089517
S11304A0CF93DF93EC018AE891E00E940E048FEF72
S11304B08093070286E991E00E94DE01CE010E944A
S11304C00E0486E890E00E940E048AE10E940A0469
S11304D088E991E00E94DE01811106C08091D30277
S11304E0823021F085E003C081E001C082E0DF9129
S11304F0CF9108951F920F920FB60F9211242F934C
S11305003F938F939F93EF93FF932FB780910502AF
S1130510909106023CB1FC01E85FFD4F30830196E7
S1130520883C910529F0909306028093050204C04B
S113053010920602109205022FBFFF91EF919F9136
S11305408F913F912F910F900FBE0F901F90189590
S11305501F920F920FB60F9211240F931F932F9394
S11305603F934F935F936F937F938F939F93AF9337
S1130570BF93EF93FF93CF93DF93CDB7DEB7C4560A
S1130580D109DEBFCDBF9091FF018DEC989F812DE5
S1130590112486958695282F220F220F820F9813F7
S11305A021C00E94C9008091D1021F928F93809133
S11305B0D0021F928F938091D2021F928F9383EC6B
S11305C091E09F938F938E010F5F1F4F1F930F93A3
S11305D00E941105C8010E940E040FB6F894DEBFF4
S11305E00FBECDBF8091FF018B3341F48091FE019A
S11305F08F5F8093FE011092FF0103C08F5F809391
S1130600FF01E091FA01F0E0EC58FF4F90818091F6
S1130610FE0198131AC00E94C90084E690E00E946B
S11306204900809300021092FE012091FA01E22F0A
S1130630F0E0E758FF4F908191509083911105C0ED
S1130640281718F42F5F2093FA01CC59DF4F0FB607
S1130650F894DEBF0FBECDBFDF91CF91FF91EF9134
S1130660BF91AF919F918F917F916F915F914F91C6
S11306703F912F911F910F910F900FBE0F901F90DC
S11306801895CF93DF93CDB7DEB7C456D1090FB613
S1130690F894DEBF0FBECDBF0E94B30060E875E2E0
S11306A080E090E00E94DC03789484E690E00E946D
S11306B053000E94C9001092FB018091FA0190E05E
S11306C0FC01E758FF4F20811F922F93FC01EC5847
S11306D0FF4F80811F928F938091D1021F928F933D
S11306E08091D0021F928F938091D2021F928F9398
S11306F08DEC91E09F938F938E010F5F1F4F1F939B
S11307000F930E941105C8010E940E0484E6F801AB
S113071011928A95E9F70FB6F894DEBF0FBECDBFEC
S11307200F2EF1EFEF2EF1E0FF2EF02D0F2EF4E659
S1130730DF2EF02D60EA71E087EE91E00E940A025C
S11307408091FB018823B1F38091D1021F928F9392
S11307508091D0021F928F938091D2021F928F9327
S1130760FF92EF921F930F930E9411051092FB01C9
S1130770C8010E9450023FEF85EA9EE0315080405C
S11307809040E1F700C00000F8012D2D11922A9548
S1130790E9F70E9401023FEF8CE291E3E1E031507E
S11307A080409040E040D9F700C000000FB6F894B4
S11307B0DEBF0FBECDBFBECF2AB128692AB920B58E
S11307C0266820BDDC01CB01880F991FAA1FBB1F1F
S11307D0880F991FAA1FBB1F9C01AD01220F331F55
S11307E0441F551F220F331F441F551F60E072E141
S11307F08AE790E00E9431048FEF820F89B9DA0111
S1130800C9010197A109B109892F9A2FAB2FBB27E1
S113081080BD08958CB95D9BFECF0895CF93DF937F
S1130820EC018881882331F021960E940A04899181
S11308308111FBCFDF91CF91089597FB072E16F41A
S1130840009407D077FD09D00E94530407FC05D01B
S11308503EF4909581959F4F0895709561957F4FD3
S11308600895A1E21A2EAA1BBB1BFD010DC0AA1FED
S1130870BB1FEE1FFF1FA217B307E407F50720F005
S1130880A21BB30BE40BF50B661F771F881F991F80
S11308901A9469F760957095809590959B01AC01C9
S11308A0BD01CF010895AA1BBB1B51E107C0AA1FBC
S11308B0BB1FA617B70710F0A61BB70B881F991FFD
S11308C05A95A9F780959095BC01CD0108958F9212
S11308D09F92AF92BF92CF92DF92EF92FF92CF930B
S11308E0DF93EC01688179818A819B8161157105AF
S11308F08105910521F464E279ED8BE597E02DE122
S113090033EF41E050E00E94C40749015A019B01C2
S1130910AC01A7EAB1E40E94E3076B017C01ACEEF1
S1130920B4EFA50194010E94F107DC01CB018C0D09
S11309309D1DAE1DBF1DB7FF03C00197A109B0489F
S113094088839983AA83BB839F77DF91CF91FF909C
S1130950EF90DF90CF90BF90AF909F908F900895CD
S11309600E946704089580E690E00E946704089559
S1130970A0E0B0E08093600090936100A0936200D7
S1130980B09363000895FC0188279927E894219186
S11309902032E9F3293010F02E30C8F32B3241F025
S11309A02D3239F4689404C00E940905820F911D08
S11309B0219120532A30C0F31EF4909581959F4FC6
S11309C00895FB01DC014150504030F08D910190BD
S11309D0801919F40020B9F7881B990B0895FB01BD
S11309E051915523A9F0BF01DC014D9145174111E7
S11309F0E1F759F4CD010190002049F04D914015E3
S1130A004111C9F3FB014111EFCF81E090E001975F
S1130A1008957AE0979F902D879F802D910D112442
S1130A200895AEE0B0E0E7E1F5E00C9404080D8928
S1130A301E8986E08C831A8309838FEF9FE79E8348
S1130A408D83AE01475E5F4F6F89788DCE0101962D
S1130A500E943305EF81F885E00FF11F10822E9676
S1130A60E4E00C942008ABE0B0E0E9E3F5E00C949A
S1130A70F6076C017B018A01FC01178216828381CF
S1130A8081FFCCC1CE0101963C01F6019381F701AF
S1130A9093FD859193FF81917F01882309F4BAC165
S1130AA0853239F493FD859193FF81917F018532DD
S1130AB029F4B60190E00E942A07E7CF912C212C5B
S1130AC0312CFFE1F315D8F08B3279F038F4803211
S1130AD079F08332A1F4232D20611DC08D3261F0A1
S1130AE0803369F4232D216016C0832D8260382E53
S1130AF0E32DE4603E2E2AC0F32DF8601DC037FCC0
S1130B002DC020ED280F2A3040F08E32B9F436FC87
S1130B1081C1232D2064322E19C036FE06C08AE01E
S1130B20989E200D1124922E11C0EAE02E9E200DD5
S1130B301124222EF32DF0623F2E08C08C3621F4AE
S1130B40832D8068382E02C0883641F4F70193FD66
S1130B50859193FF81917F018111B3CF982F9F7D60
S1130B609554933028F40C5F1F4F9FE399830DC075
S1130B70833631F0833771F0833509F059C021C0D1
S1130B80F801808189830E5F1F4F88248394912C00
S1130B90530113C02801F2E04F0E511CF801A0804C
S1130BA0B18036FE03C0692D70E002C06FEF7FEFA5
S1130BB0C5010E941F074C018201F32DFF773F2ED0
S1130BC016C0280122E0420E511CF801A080B18019
S1130BD036FE03C0692D70E002C06FEF7FEFC501E0
S1130BE00E9414074C01F32DF0683F2E820133FC60
S1130BF01BC0822D90E088169906B0F4B60180E2FD
S1130C0090E00E942A072A94F4CFF50137FC8591DD
S1130C1037FE81915F01B60190E00E942A072110FE
S1130C202A9421E0821A91088114910471F7E8C092
S1130C30843611F0893641F5F80137FE07C060812A
S1130C407181828193810C5F1F4F08C06081718123
S1130C50072E000C880B990B0E5F1F4FF32DFF76A8
S1130C603F2E97FF09C090958095709561957F4FB1
S1130C708F4F9F4FF0683F2E2AE030E0A3010E947F
S1130C806607882E861845C0853731F4232D2F7EBC
S1130C90B22E2AE030E025C0932D997FB92E8F36ED
S1130CA0C1F018F4883579F0B5C0803719F0883769
S1130CB021F0B0C0E92FE061BE2EB4FE0DC0FB2DC3
S1130CC0F460BF2E09C034FE0AC0292F2660B22E5C
S1130CD006C028E030E005C020E130E002C020E199
S1130CE032E0F801B7FE07C060817181828193818F
S1130CF00C5F1F4F06C06081718180E090E00E5F41
S1130D001F4FA3010E946607882E8618FB2DFF77CC
S1130D103F2E36FE0DC0232D2E7FA22E891458F4AB
S1130D2034FE0BC032FC09C0832D8E7EA82E05C074
S1130D30B82CA32C03C0B82C01C0B92CA4FE0FC03E
S1130D40FE01E80DF11D8081803321F49A2D997EF6
S1130D50A92E09C0A2FE06C0B394B39404C08A2D80
S1130D60867809F0B394A3FC11C0A0FE06C0B214A7
S1130D7088F4280C922C9B180EC0B21460F4B601AF
S1130D8080E290E00E942A07B394F7CFB21418F4DB
S1130D902B1802C0982C212CA4FE10C0B60180E3AD
S1130DA090E00E942A07A2FE17C0A1FC03C088E7B6
S1130DB090E002C088E590E0B6010CC08A2D8678E8
S1130DC059F0A1FE02C08BE201C080E2A7FC8DE2D3
S1130DD0B60190E00E942A07891438F4B60180E332
S1130DE090E00E942A079A94F7CF8A94F301E80DC1
S1130DF0F11D8081B60190E00E942A078110F5CF91
S1130E00222009F442CEB60180E290E00E942A0733
S1130E102A94F6CFF6018681978102C08FEF9FEF67
S1130E202B96E2E10C941208FC010590615070408D
S1130E300110D8F7809590958E0F9F1F0895FC019F
S1130E406150704001900110D8F7809590958E0FF5
S1130E509F1F08950F931F93CF93DF93FB0123816B
S1130E6021FD03C08FEF9FEF2CC022FF16C04681E7
S1130E705781248135814217530744F4A081B181FD
S1130E809D012F5F3F4F318320838C9326813781CF
S1130E902F5F3F4F3783268314C08B01EC01FB0186
S1130EA00084F185E02D0995892BE1F6D801169689
S1130EB08D919C911797019617969C938E931697F4
S1130EC0CE01DF91CF911F910F910895FA01AA27C6
S1130ED0283051F1203181F1E8946F936E7F6E5F79
S1130EE07F4F8F4F9F4FAF4FB1E03ED0B4E03CD027
S1130EF0670F781F891F9A1FA11D680F791F8A1F0A
S1130F00911DA11D6A0F711D811D911DA11D20D070
S1130F1009F468943F912AE0269F11243019305D2A
S1130F203193DEF6CF010895462F4770405D41931B
S1130F30B3E00FD0C9F7F6CF462F4F70405D4A3368
S1130F4018F0495D31FD4052419302D0A9F7EACF30
S1130F50B4E0A6959795879577956795BA95C9F75F
S1130F6000976105710508959B01AC010A2E069452
S1130F705795479537952795BA95C9F7620F731F0B
S1130F80841F951FA01D0895052E97FB1EF4009441
S1130F900E94DB0757FD07D00E94310407FC03D0F1
S1130FA04EF40C94DB0750954095309521953F4FB6
S1130FB04F4F5F4F089590958095709561957F4F41
S1130FC08F4F9F4F08950E942D08A59F900DB49FA9
S1130FD0900DA49F800D911D11240895B7FF0C94CA
S1130FE0E3070E94E307821B930B08952F923F921D
S1130FF04F925F926F927F928F929F92AF92BF9225
S1131000CF92DF92EF92FF920F931F93CF93DF93D0
S1131010CDB7DEB7CA1BDB0B0FB6F894DEBF0FBE2D
S1131020CDBF09942A88398848885F846E847D847A
S11310308C849B84AA84B984C884DF80EE80FD807C
S11310400C811B81AA81B981CE0FD11D0FB6F894F2
S1131050DEBF0FBECDBFED010895A29FB001B39FC7
S1131060C001A39F700D811D1124911DB29F700DAD
S10F1070811D1124911D0895F894FFCFF8
S113107C0100000031352E355F33302E385F3135A9
S113108C2E313200640000000064000000003100C6
S113109C2E000D0A4F4B0D0A0041542B4349504D61
S11310AC4F44453D25640D0041542B4349504D5547
S11310BC583D25640D0041542B43474154543D3154
S11310CC0D00415445300041540041542B434950C8
S11310DC534855540D0041542B434950434C4F53E2
S11310EC453D310D0041542B435245473F0D002BD8
S11310FC435245473A20302C310041542B4347414D
S113110C54543F0D002B43474154543A2031004171
S113111C542B435354543D2200220D0041542B4371
S113112C494943520D0041542B43494653520D0037
S113113C41542B434950535052543D310D004154AA
S113114C2B4349505354415455530D00434F4E4E69
S113115C454354204F4B0041542B4349504D555853
S113116C3F0D002B4349504D55583A203000415403
S113117C2B43495053544152543D22544350222C36
S113118C220041542B43495053544152543D2200A4
S113119C222C22544350222C220041542B434950DC
S11311AC53454E440D003E0053454E44204F4B00D6
S11311BC32303232006170692E7468696E677370F4
S11311CC65616B2E636F6D003132323534363732D4
S11311DC33340025642E25642E25640D0025642EDD
S11311EC25642E25642073703A2025642C207065A8
S11311FC723A2025640D003132372E302E302E31C8
S10D120C0025642E25642E256400DD
S903016695
